S019000070726163615F696E7A796E696572736B612E73726563EE
S113000019C033C032C031C030C02FC02EC02DC083
S11300102CC02BC02AC029C028C027C026C025C098
S11300203FC023C022C021C020C045C01EC01DC087
S11300301CC01BC011241FBECFEFD4E0DEBFCDBF58
S113004011E0A0E0B1E0EEECF3E002C005900D9207
S1130050A630B107D9F721E0A6E0B1E001C01D92B6
S1130060A331B207E1F702D0B0C1CACF81E890E072
S113007084D13AD14CD06ED0D1D06CD1789488D17F
S1130080EC0160E081E02AD1CE011DD12FEF81E1A6
S11300909AE7215080409040E1F700C00000EFCF84
S11300A01F920F920FB60F92112416BC0F900FBE21
S11300B00F901F9018951F920F920FB60F92112454
S11300C02F933F934F935F936F937F938F939F935C
S11300D0AF93BF93EF93FF9343D0E0910001F0916E
S11300E001018581813009F4158234D0FF91EF91AB
S11300F0BF91AF919F918F917F916F915F914F913C
S11301003F912F910F900FBE0F901F901895E09183
S11301100001F091010182E08483EAE7F0E080814C
S11301208068808380818E618083ECE7F0E0908139
S1130130A0910001B091010114968C91892B8066E5
S11301408083E0910001F0910101118210821382F9
S113015012820895EAE7F0E0808180648083089544
S113016080910A01E0910001F09101018430A8F529
S113017094819230A1F0933001F59091790020910F
S1130180060130910701290F311D30930701209397
S1130190060192E094838F5F80930A010EC0209140
S11301A079008091080190910901820F911D90932B
S11301B009018093080183E0848380917C008C7F13
S11301C080937C0090917C00E0910001F09101010A
S11301D08481892B80937C000895809108019091FB
S11301E0090196958795969587959183808380914B
S11301F00601909107019695879596958795938327
S1130200828310920A01109209011092080110923F
S113021007011092060181E08583089587B18F7CE0
S113022087B988B1806388B9089580FF02C0289A8D
S113023001C0289881FF02C05F9A01C05F9882FFC5
S113024002C0409A01C0409883FF02C0419A0895B9
S11302504198089583B181704F9982603099846088
S1130260319988600895CF93DF93209857983898F0
S113027039985C9A5A9AEEDF90E1899FE001112443
S11302805A985A9AE7DF5A988C2BDF91CF910895A8
S11302905B98E9CFCF93C82F209A579A389A399A06
S11302A05C985A9A82958F70C0DF5A985A9A8C2F0C
S11302B0BCDF5A98EDDF87FDFDCFCF9108955B98A1
S11302C0E9CF5B9AE7CFCF93DF93EC018991882341
S11302D011F0F7DFFBCFDF91CF91089590E4699F90
S11302E0800D11248068EBCFCF93209A579A389AC7
S11302F0399A529A539A549A2FE58AEE90E02150F3
S113030080409040E1F700C000005B985A985C98E8
S1130310C3E05A9A83E089DF5A9887EA91E6019705
S1130320F1F700C00000C150A1F75A9A82E07DDFC6
S11303305A9887E893E10197F1F700C0000088E23A
S1130340BEDF88E0BCDF81E0BADF86E0B8DF8CE0A6
S1130350CF91B5CF559A5D9A84B5806A84BD84B532
S1130360836084BD85B5886085BD87EC87BD85B510
S1130370816085BD8AE088BD08959093C50080930F
S1130380C40088E18093C1008EE08093C200089588
S11303908091C00087FFFCCF8091C600813771F047
S11303A080910B019091C600E82FF0E0EE5FFE4FC4
S11303B090838F5F80930B01EBDF04C010920B01DD
S11103C01092C60082E091E00895F894FFCFF9
S10903CE0C013030300088
S9030000FC
