:1000000019C033C032C031C030C02FC02EC02DC087
:100010002CC02BC02AC029C028C027C026C025C09C
:100020007DC023C022C021C020C083C01EC01DC00F
:100030001CC01BC011241FBECFEFD4E0DEBFCDBF5C
:1000400011E0A0E0B1E0EAE4F5E002C005900D9215
:10005000A230B107D9F721E0A2E0B1E001C01D92C2
:10006000AF31B207E1F702D06EC2CACFCF93DF93B0
:10007000CDB7DEB72F970FB6F894DEBF0FBECDBF5A
:1000800081E890E055D108D180D0A2D047D17894B2
:1000900087ECC82ED12CE12CF12C5ED17723E9F32B
:1000A000233059F02430A1F02230E9F43E871F8636
:1000B00040930201CE010E9607C03B874C871D86F8
:1000C00050930201CE010B9619D28C0111270DC05D
:1000D0003F83488759871A8660930201CE010796AD
:1000E0000DD28C0102C000E010E0B090020181E36B
:1000F000B81204C09801A4EFB1E006C082E3B812C0
:1001000008C09801A0EDB7E0CBD1A7019601ACD112
:1001100089018B2DE9D0C801D9D0BFCF1F920F9292
:100120000FB60F92112416BC0F900FBE0F901F90A8
:1001300018951F920F920FB60F9211242F933F9391
:100140004F935F936F937F938F939F93AF93BF93DF
:10015000EF93FF9343D0E0910001F091010185817D
:10016000813009F4158234D0FF91EF91BF91AF91A6
:100170009F918F917F916F915F914F913F912F91BF
:100180000F900FBE0F901F901895E0910001F09115
:10019000010182E08483EAE7F0E080818068808367
:1001A00080818E618083ECE7F0E09081A091000176
:1001B000B091010114968C91892B80668083E09127
:1001C0000001F091010111821082138212820895C0
:1001D000EAE7F0E0808180648083089580910701E0
:1001E000E0910001F09101018430A8F594819230F2
:1001F000A1F0933001F590917900209103013091A5
:100200000401290F311D309304012093030192E072
:1002100094838F5F809307010EC0209179008091B5
:10022000050190910601820F911D90930601809324
:10023000050183E0848380917C008C7F80937C0027
:1002400090917C00E0910001F09101018481892B63
:1002500080937C0008958091050190910601969508
:1002600087959695879591838083809103019091DE
:10027000040196958795969587959383828310922E
:1002800007011092060110920501109204011092CC
:10029000030181E085830895229A2A9AE0E8F0E03C
:1002A000808183638083E1E8F0E0808188618083DE
:1002B00080818160808387EC90E0909389008093B7
:1002C000880090938B0080938A000895F89490930F
:1002D0008B0080938A0078940895F8949093890015
:1002E0008093880078940895CF93C82FD5DF8C2F02
:1002F00090E0C0978130910541F08230910541F046
:10030000892B51F487EC90E005C084EF91E002C0A6
:1003100080ED97E0CF91E1CFCF91089585B58260D0
:1003200085BDEEE6F0E080818160808316BC089593
:100330009093C5008093C40088E18093C1008EE053
:100340008093C20008958091C00087FF03C0809110
:10035000C60008958FEF0895CF93DF9300D000D0AB
:1003600000D0CDB7DEB7809117018130C9F018F009
:10037000823021F14AC01092110180E38093120172
:10038000809313018093140180931501109216013C
:100390001092100110920A0181E08093170135C07C
:1003A000D2DF809311018150843030F582E0809358
:1003B000170110920901109208011EC0C4DF20919C
:1003C00011018F3F81F090911001921760F4E92F95
:1003D000F0E0EF5EFE4F81839F5F909310011092DB
:1003E00009011092080180911001281305C081E0D5
:1003F00080931601109217018091080190910901D4
:1004000001969093090180930801809108019091D1
:1004100009018131974230F01092170110920901C1
:100420001092080180911601813021F486E0E1E10B
:10043000F1E003C086E0EAE0F1E0DE011196019010
:100440000D928A95E1F729813A814B815C816D811A
:100450007E8180E090E026960FB6F894DEBF0FBE56
:10046000CDBFDF91CF910895052E97FB16F4009430
:100470000FD057FD05D020D007FC02D046F408C0AD
:1004800050954095309521953F4F4F4F5F4F0895C0
:1004900090958095709561957F4F8F4F9F4F0895F0
:1004A000A29FB001B39FC001A39F01D0B29F700D66
:1004B000811D1124911D0895A1E21A2EAA1BBB1BB8
:1004C000FD010DC0AA1FBB1FEE1FFF1FA217B30720
:1004D000E407F50720F0A21BB30BE40BF50B661F36
:1004E000771F881F991F1A9469F7609570958095FA
:1004F00090959B01AC01BD01CF010895FC018827B7
:100500009927E89421912032E9F3293010F02E3018
:10051000C8F32B3239F02D3231F4689403C00BD07C
:10052000820F911D219120532A30C8F31EF490951B
:1005300081959F4F08957AE0979F902D879F802DFA
:0A054000910D11240895F894FFCFE7
:02054A00180196
:00000001FF
