S019000070726163615F696E7A796E696572736B612E73726563EE
S113000019C033C032C031C030C02FC02EC02DC083
S11300102CC02BC02AC029C028C027C026C025C098
S113002094C023C022C021C020C09AC01EC01DC0DD
S11300301CC01BC011241FBECFEFD4E0DEBFCDBF58
S113004011E0A0E0B1E0E2E7FCE002C005900D920F
S1130050A630B107D9F721E0A6E0B1E001C01D92B6
S1130060A332B207E1F702D002C6CACFCF93DF931F
S1130070CDB7DEB760970FB6F894DEBF0FBECDBF25
S113008081E890E0FDD178D1ADD196D0B8D0EED151
S1130090789487EC482E512C612C712C92E0C92E57
S11300A091E0D92E7E0187E0E80EF11C2AE0A22E11
S11300B0B12CFAD17723E9F3233051F0243079F0CD
S11300C02230B9F4388B40930601CE0140960EC01D
S11300D03E874F8750930601CE010E9607C03B879B
S11300E04C875D8760930601CE010B96C3D28C01C9
S11300F002C000E010E080910601813321F49801F0
S1130100A4EFB1E005C0823341F49801A0EDB7E05B
S113011083D2A301920164D289011F930F93DF92CA
S1130120CF92FF92EF92CBD2C7011BD180910601EF
S113013083D1C801B50140D2CB0170D10F900F908B
S11301400F900F900F900F90B4CF1F920F920FB695
S11301500F92112416BC0F900FBE0F901F9018958C
S11301601F920F920FB60F9211242F933F934F9328
S11301705F936F937F938F939F93AF93BF93EF930B
S1130180FF9343D0E0910001F0910101858181301A
S113019009F4158234D0FF91EF91BF91AF919F91F3
S11301A08F917F916F915F914F913F912F910F901C
S11301B00FBE0F901F901895E0910001F09101017E
S11301C082E08483EAE7F0E0808180688083808134
S11301D08E618083ECE7F0E09081A0910001B09102
S11301E0010114968C91892B80668083E091000133
S11301F0F091010111821082138212820895EAE7BC
S1130200F0E0808180648083089580910B01E09107
S11302100001F09101018430A8F594819230A1F09D
S1130220933001F5909179002091070130910801F4
S1130230290F311D309308012093070192E0948324
S11302408F5F80930B010EC020917900809109018A
S113025090910A01820F911D90930A0180930901E4
S113026083E0848380917C008C7F80937C009091D8
S11302707C00E0910001F09101018481892B80933D
S11302807C0008958091090190910A0196958795C3
S113029096958795918380838091070190910801B9
S11302A096958795969587959383828310920B01F3
S11302B010920A011092090110920801109207018C
S11302C081E08583089580FF02C0289A01C02898A0
S11302D081FF02C05F9A01C05F9882FF02C0409A0A
S11302E001C0409883FF02C0419A0895419808953F
S11302F083B181704F9982603099846031998860AC
S11303000895CF93DF9320985798389839985C9A3A
S11303105A9AEEDF90E1899FE00111245A985A9A83
S1130320E7DF5A988C2BDF91CF9108955B98E9CF42
S1130330CF93C82F209A579A389A399A5C985A9A28
S113034082958F70C0DF5A985A9A8C2FBCDF5A98C6
S1130350EDDF87FDFDCFCF9108955B98E9CF5B9AE0
S1130360E7CFCF93DF93EC018991882311F0F7DF76
S1130370FBCFDF91CF910895CF93209A579A389A63
S1130380399A529A539A549A2FE58AEE90E0215062
S113039080409040E1F700C000005B985A985C9858
S11303A0C3E05A9A83E08FDF5A9887EA91E601976F
S11303B0F1F700C00000C150A1F75A9A82E083DF30
S11303C05A9887E893E10197F1F700C0000088E2AA
S11303D0C4DF88E0C2DF81E0C0DF86E0BEDF8CE0FE
S11303E0CF91BBCF229A2A9AE0E8F0E08081836320
S11303F08083E1E8F0E0808188618083808181608E
S1130400808387EC90E0909389008093880081E05A
S113041090E090938B0080938A000895F8949093D1
S11304208B0080938A0078940895F89490938900BF
S11304308093880078940895CF93C82FD3DF8C2FAE
S113044090E0C0978130910541F08230910541F0F0
S1130450892B51F487EC90E005C084EF91E002C051
S113046080ED97E0CF91E1CFCF91089585B582607B
S113047085BDEEE6F0E080818160808316BC08953E
S11304809093C5008093C40088E18093C1008EE0FE
S11304908093C20008958091C00087FF03C08091BB
S11304A0C60008958FEF0895CF93DF9300D000D056
S11304B000D0CDB7DEB780911B018130C9F018F0B0
S11304C0823021F14AC01092150180E38093160115
S11304D080931701809318018093190110921A01D7
S11304E01092140110920E0181E080931B0135C01B
S11304F0D2DF809315018150843030F582E08093FF
S11305001B0110920D0110920C011EC0C4DF20913A
S113051015018F3F81F090911401921760F4E92F37
S1130520F0E0EB5EFE4F81839F5F90931401109285
S11305300D0110920C0180911401281305C081E073
S113054080931A0110921B0180910C0190910D016E
S1130550019690930D0180930C0180910C01909170
S11305600D018131974230F010921B0110920D0160
S113057010920C0180911A01813021F486E0E5E1AA
S1130580F1E003C086E0EEE0F1E0DE0111960190B7
S11305900D928A95E1F729813A814B815C816D81C5
S11305A07E8180E090E026960FB6F894DEBF0FBE01
S11305B0CDBFDF91CF910895AA1BBB1B51E107C0AA
S11305C0AA1FBB1FA617B70710F0A61BB70B881FDF
S11305D0991F5A95A9F780959095BC01CD0108956E
S11305E0052E97FB16F400940FD057FD05D020D0AC
S11305F007FC02D046F408C05095409530952195EB
S11306003F4F4F4F5F4F089590958095709561953A
S11306107F4F8F4F9F4F0895A29FB001B39FC0019A
S1130620A39F01D0B29F700D811D1124911D0895C7
S1130630A1E21A2EAA1BBB1BFD010DC0AA1FBB1FE2
S1130640EE1FFF1FA217B307E407F50720F0A21B54
S1130650B30BE40BF50B661F771F881F991F1A94C1
S113066069F760957095809590959B01AC01BD01EB
S1130670CF010895FC0188279927E894219120321D
S1130680E9F3293010F02E30C8F32B3239F02D3233
S113069031F4689403C00BD0820F911D2191205333
S11306A02A30C8F31EF4909581959F4F08957AE0FF
S11306B0979F902D879F802D910D11240895AEE072
S11306C0B0E0E4E6F3E0AAC20D891E8986E08C83DB
S11306D01A8309838FEF9FE79E838D83AE01475E64
S11306E05F4F6F89788DCE01019608D0EF81F88530
S11306F0E00FF11F10822E96E4E0ACC2ABE0B0E054
S1130700E3E8F3E07DC26C017B018A01FC011782FE
S11307101682838181FFBFC1CE0101963C01F6019F
S11307209381F70193FD859193FF81917F01882344
S113073009F4ADC1853239F493FD859193FF81911C
S11307407F01853221F4B60190E0C0D1E8CF912C2D
S1130750212C312CFFE1F315D8F08B3279F038F4E9
S1130760803279F08332A1F4232D20611DC08D32B3
S113077061F0803369F4232D216016C0832D8260DB
S1130780382EE32DE4603E2E2AC0F32DF8601DC000
S113079037FC2DC020ED280F2A3040F08E32B9F4FA
S11307A036FC75C1232D2064322E19C036FE06C0D6
S11307B08AE0989E200D1124922E11C0EAE02E9E0C
S11307C0200D1124222EF32DF0623F2E08C08C360A
S11307D021F4832D8068382E02C0883641F4F70155
S11307E093FD859193FF81917F018111B3CF982F60
S11307F09F7D9554933028F40C5F1F4F9FE399839A
S11308000DC0833631F0833771F0833509F055C05C
S113081020C0F801808189830E5F1F4F8824839450
S1130820912C530112C02801F2E04F0E511CF80123
S1130830A080B18036FE03C0692D70E002C06FEF66
S11308407FEFC50138D14C018201F32DFF773F2E94
S113085015C0280122E0420E511CF801A080B1808D
S113086036FE03C0692D70E002C06FEF7FEFC50153
S113087017D14C01F32DF0683F2E820133FC19C0CF
S1130880822D90E088169906A0F4B60180E290E0EB
S11308901DD12A94F5CFF50137FC859137FE81915E
S11308A05F01B60190E012D121102A9421E0821A4E
S11308B091088114910479F7E1C0843611F08936E6
S11308C039F5F80137FE07C0608171818281938117
S11308D00C5F1F4F08C060817181072E000C880BCC
S11308E0990B0E5F1F4FF32DFF763F2E97FF09C024
S11308F090958095709561957F4F8F4F9F4FF068CD
S11309003F2E2AE030E0A3011DD1882E861844C072
S1130910853731F4232D2F7EB22E2AE030E025C016
S1130920932D997FB92E8F36C1F018F4883579F05C
S1130930AEC0803719F0883721F0A9C0E92FE061F3
S1130940BE2EB4FE0DC0FB2DF460BF2E09C034FED4
S11309500AC0292F2660B22E06C028E030E005C068
S113096020E130E002C020E132E0F801B7FE07C028
S113097060817181828193810C5F1F4F06C0608109
S1130980718180E090E00E5F1F4FA301DBD0882EC1
S11309908618FB2DFF773F2E36FE0DC0232D2E7FAC
S11309A0A22E891458F434FE0BC032FC09C0832DE6
S11309B08E7EA82E05C0B82CA32C03C0B82C01C071
S11309C0B92CA4FE0FC0FE01E80DF11D8081803317
S11309D021F49A2D997EA92E09C0A2FE06C0B394D3
S11309E0B39404C08A2D867809F0B394A3FC10C094
S11309F0A0FE06C0B21480F4280C922C9B180DC0E3
S1130A00B21458F4B60180E290E060D0B394F8CF09
S1130A10B21418F42B1802C0982C212CA4FE0FC079
S1130A20B60180E390E052D0A2FE16C0A1FC03C040
S1130A3088E790E002C088E590E0B6010CC08A2DFA
S1130A40867851F0A1FE02C08BE201C080E2A7FCCF
S1130A508DE2B60190E03AD0891430F4B60180E317
S1130A6090E034D09A94F8CF8A94F301E80DF11D04
S1130A708081B60190E02AD08110F6CF222009F4BB
S1130A804ECEB60180E290E021D02A94F7CFF60151
S1130A908681978102C08FEF9FEF2B96E2E1CCC055
S1130AA0FC010590615070400110D8F78095909535
S1130AB08E0F9F1F0895FC0161507040019001103A
S1130AC0D8F7809590958E0F9F1F08950F931F93CD
S1130AD0CF93DF93FB01238121FD03C08FEF9FEFB1
S1130AE02CC022FF16C046815781248135814217CC
S1130AF0530744F4A081B1819D012F5F3F4F31839F
S1130B0020838C93268137812F5F3F4F3783268341
S1130B1014C08B01EC01FB010084F185E02D0995E3
S1130B20892BE1F6D80116968D919C911797019621
S1130B3017969C938E931697CE01DF91CF911F91B8
S1130B400F910895FA01AA27283051F1203181F13B
S1130B50E8946F936E7F6E5F7F4F8F4F9F4FAF4FC1
S1130B60B1E03ED0B4E03CD0670F781F891F9A1FD4
S1130B70A11D680F791F8A1F911DA11D6A0F711D88
S1130B80811D911DA11D20D009F468943F912AE094
S1130B90269F11243019305D3193DEF6CF0108957C
S1130BA0462F4770405D4193B3E00FD0C9F7F6CFAD
S1130BB0462F4F70405D4A3318F0495D31FD405275
S1130BC0419302D0A9F7EACFB4E0A695979587950B
S1130BD077956795BA95C9F70097610571050895EA
S1130BE09B01AC010A2E0694579547953795279596
S1130BF0BA95C9F7620F731F841F951FA01D08952E
S1130C002F923F924F925F926F927F928F929F9218
S1130C10AF92BF92CF92DF92EF92FF920F931F9306
S1130C20CF93DF93CDB7DEB7CA1BDB0B0FB6F894B7
S1130C30DEBF0FBECDBF09942A88398848885F84F7
S1130C406E847D848C849B84AA84B984C884DF8068
S1130C50EE80FD800C811B81AA81B981CE0FD11D4C
S1130C600FB6F894DEBF0FBECDBFED010895F89422
S1050C70FFCFB0
S1090C721C0125640000D2
S9030000FC
