:1000000019C033C032C031C030C02FC02EC02DC087
:100010002CC02BC02AC029C028C027C026C025C09C
:10002000F0C023C022C021C020C0F6C01EC01DC029
:100030001CC01BC011241FBECFEFD4E0DEBFCDBF5C
:1000400011E0A0E0B1E0E8EAF9E002C005900D920D
:10005000AA30B107D9F721E0AAE0B1E001C01D92B2
:10006000AB32B207E1F702D09DC4CACFCF93DF9382
:1000700000D000D01F92CDB7DEB71D8281E890E09E
:100080006AD214D2F5D017D17AD146D278948AEFB9
:10009000782E04E610E098E3A92E92E0B92E24EC25
:1000A000C22E29E0D22E39E1E32EF12C68D2298329
:1000B0003A834B835C836D836623D9F060E08CE0E8
:1000C000EFD18981823031F0833041F0813061F4A9
:1000D0008A8109C08A81D7D18B8105C08A81D3D119
:1000E0008B81D1D18C81CFD1CE01029603D4809364
:1000F0001E014CD160E080E0D3D1E0910001F0918D
:1001000001014AE06FE171E08081918110D48FE1BB
:1001100091E0BBD182E091E0B8D161E080E0C0D154
:10012000E0910001F091010180819181789EB00100
:10013000799E700D112480E090E03AD320E030E009
:100140004FEF52E4A1D208D3CB01B801BFD39B013A
:100150004C014AE06FE171E0C901E9D38FE191E020
:1001600094D185E091E091D14AE06FE171E0C40162
:10017000DED38FE191E089D187E091E086D160E024
:1001800086E08ED1E0910001F09101014AE06FE13B
:1001900071E082819381CBD38FE191E076D182E0CF
:1001A00091E073D161E087E07BD1E0910001F091B3
:1001B0000101828193818A9D40018B9D900C9A9DC3
:1001C000900C1124C401B60181D3CB014AE06FE148
:1001D00071E0ADD38FE191E058D185E091E055D148
:1001E000C401B70173D3CB01B80170D34AE06FE10A
:1001F00071E09DD38FE191E048D187E091E045D156
:1002000055CF1F920F920FB60F92112416BC0F906C
:100210000FBE0F901F9018951F920F920FB60F925E
:1002200011242F933F934F935F936F937F938F93FB
:100230009F93AF93BF93EF93FF9343D0E09100015F
:10024000F09101018581813009F4158234D0FF914C
:10025000EF91BF91AF919F918F917F916F915F913E
:100260004F913F912F910F900FBE0F901F901895B7
:10027000E0910001F091010182E08483EAE7F0E07F
:1002800080818068808380818E618083ECE7F0E0EC
:100290009081A0910001B091010114968C91892B5D
:1002A00080668083E0910001F0910101118210824B
:1002B000138212820895EAE7F0E0808180648083EF
:1002C000089580910E01E0910001F09101018430C8
:1002D000A8F594819230A1F0933001F590917900C6
:1002E00020910A0130910B01290F311D30930B0130
:1002F00020930A0192E094838F5F80930E010EC0D9
:100300002091790080910C0190910D01820F911D37
:1003100090930D0180930C0183E0848380917C0095
:100320008C7F80937C0090917C00E0910001F091A3
:1003300001018481892B80937C00089580910C01B8
:1003400090910D01969587959695879591838083D9
:1003500080910A0190910B019695879596958795C6
:100360009383828310920E0110920D0110920C0162
:1003700010920B0110920A0181E08583089587B1E4
:100380008F7C87B988B1806388B90895359914C086
:100390002FEF84E39CE0215080409040E1F700C0C3
:1003A000000080910F018F5F83300CF082E080931A
:1003B0000F01359BFECF17C0349918C02FEF84E38F
:1003C0009CE0215080409040E1F700C00000809107
:1003D0000F01815087FD03C080930F0102C010926E
:1003E0000F01349BFECF80910F01AAC0089580FFBA
:1003F00002C0289A01C0289881FF02C05F9A01C0FC
:100400005F9882FF02C0409A01C0409883FF02C0FB
:10041000419A08954198089583B181704F998260FF
:1004200030998460319988600895CF93DF93209844
:100430005798389839985C9A5A9AEEDF90E1899FDC
:10044000E00111245A985A9AE7DF5A988C2BDF91D1
:10045000CF9108955B98E9CFCF93C82F209A579AF0
:10046000389A399A5C985A9A82958F70C0DF5A9858
:100470005A9A8C2FBCDF5A98EDDF87FDFDCFCF91C4
:1004800008955B98E9CF5B9AE7CFCF93DF93EC01B8
:100490008991882311F0F7DFFBCFDF91CF91089589
:1004A00090E4699F800D11248068EBCFCF93209A50
:1004B000579A389A399A529A539A549A2FE58AEE53
:1004C00090E0215080409040E1F700C000005B9830
:1004D0005A985C98C3E05A9A83E089DF5A9887EA71
:1004E00091E60197F1F700C00000C150A1F75A9AB8
:1004F00082E07DDF5A9887E893E10197F1F700C029
:10050000000088E2BEDF88E0BCDF81E0BADF86E081
:10051000B8DF8CE0CF91B5CF559A5D9A84B5806AEB
:1005200084BD84B5836084BD85B5886085BD87EC56
:1005300087BD85B5816085BD80911E0188BD089508
:10054000813031F018F0823019F0089587EC01C045
:100550008FEF87BD08959093C5008093C40088E114
:100560008093C1008EE08093C20008958091C00006
:1005700087FF03C08091C60008958FEF0895CF9341
:10058000DF9300D000D01F92CDB7DEB780911D0160
:100590008130B9F018F0823011F148C01092180182
:1005A00080E38093190180931A0180931B011092BC
:1005B0001C01109217011092120181E080931D011D
:1005C00035C0D4DF809318018150833030F582E04C
:1005D00080931D0110921101109210011EC0C6DF00
:1005E000209118018F3F81F090911701921760F4CC
:1005F000E92FF0E0E85EFE4F81839F5F9093170143
:10060000109211011092100180911701281305C05A
:1006100081E080931C0110921D0180911001909146
:1006200011010196909311018093100180911001A6
:10063000909111018131974230F010921D0110927A
:1006400011011092100180911C01813021F485E08C
:10065000E8E1F1E003C085E0E2E1F1E0DE011196BE
:1006600001900D928A95E1F729813A814B815C8155
:100670006D8170E080E090E00F900F900F900F90F0
:100680000F90DF91CF9108950CD0E6C0DED040F0FE
:10069000D5D030F021F45F3F19F0C7C0511110C11F
:1006A000CAC0EBD098F39923C9F35523B1F3951B36
:1006B000550BBB27AA2762177307840738F09F5F83
:1006C0005F4F220F331F441FAA1FA9F333D00E2EF2
:1006D0003AF0E0E830D091505040E695001CCAF75F
:1006E00029D0FE2F27D0660F771F881FBB1F261724
:1006F00037074807AB07B0E809F0BB0B802DBF01F7
:10070000FF2793585F4F2AF09E3F510568F08DC038
:10071000D7C05F3FECF3983EDCF3869577956795FD
:10072000B795F7959F5FC9F7880F911D96958795A7
:1007300097F90895E1E0660F771F881FBB1F6217C6
:1007400073078407BA0720F0621B730B840BBA0B84
:10075000EE1F88F7E095089598D088F09F5790F0A5
:10076000B92F9927B751A0F0D1F0660F771F881FD6
:10077000991F1AF0BA95C9F712C0B13081F09FD015
:10078000B1E008959CC0672F782F8827B85F39F0B3
:10079000B93FCCF3869577956795B395D9F73EF435
:1007A00090958095709561957F4F8F4F9F4F0895DD
:1007B000E89409C097FB3EF49095809570956195FB
:1007C0007F4F8F4F9F4F9923A9F0F92F96E9BB27B1
:1007D0009395F695879577956795B795F111F8CF2D
:1007E000FAF4BB0F11F460FF1BC06F5F7F4F8F4F98
:1007F0009F4F16C0882311F096E911C0772321F08E
:100800009EE8872F762F05C0662371F096E8862F25
:1008100070E060E02AF09A95660F771F881FDAF77C
:10082000880F9695879597F9089597F99F6780E8BF
:1008300070E060E008959FEF80EC089500240A9432
:100840001616170618060906089500240A941216AB
:100850001306140605060895092E0394000C11F4DE
:10086000882352F0BB0F40F4BF2B11F460FF04C08B
:100870006F5F7F4F8F4F9F4F089557FD9058440FE4
:10088000551F59F05F3F71F04795880F97FB991FEF
:1008900061F09F3F79F087950895121613061406AC
:1008A000551FF2CF4695F1DF08C016161706180639
:1008B000991FF1CF86957105610508940895E89414
:1008C000BB2766277727CB0197F90895AA1BBB1B87
:1008D00051E107C0AA1FBB1FA617B70710F0A61B40
:1008E000B70B881F991F5A95A9F780959095BC0161
:1008F000CD010895FC0188279927E89421912032A1
:10090000E9F3293010F02E30C8F32B3239F02D32B4
:1009100031F4689403C015D0820F911D21912053AA
:100920002A30C8F31EF4909581959F4F0895BB27F8
:100930004A3031F4992322F4BDE2909581959F4F7E
:1009400009C07AE0979F902D879F802D910D1124EB
:100950000895BB27FB015527AA27880F991FAA1FB7
:10096000A41710F0A41B83955051B9F7A05DAA33CA
:1009700008F0A95DA193009779F7B111B193119295
:10098000CB0100C0DC01FC01672F71917723E1F7F7
:10099000329704C07C916D9370836291AE17BF074C
:0809A000C8F30895F894FFCF9D
:0A09A80024012020002C005600005E
:00000001FF
