S019000070726163615F696E7A796E696572736B612E73726563EE
S113000019C033C032C031C030C02FC02EC02DC083
S11300102CC02BC02AC010C128C027C026C025C0B0
S1130020DFC023C022C021C020C01FC01EC01DC00D
S11300301CC01BC011241FBECFEFD4E0DEBFCDBF58
S113004011E0A0E0B1E0EAE6F7E002C005900D920D
S1130050AA30B107D9F721E0AAE0B1E001C01D92AE
S1130060A831B207E1F702D07EC3CACFB6D119D105
S1130070FAD006D2E8D178948AEFB82EC4E6D0E05C
S113008094ECE92E99E0F92E29E1C22ED12C04E159
S113009010E060E080E092D1E0910001F091010174
S11300A04AE06CE071E0808191812AD38CE091E098
S11300B07AD182E091E077D161E080E07FD1E09174
S11300C00001F091010180819181B89EB001B99E37
S11300D0700D112480E090E071D220E030E04FEF09
S11300E052E4D8D13FD2CB01BE01F6D29B014C01E0
S11300F04AE06CE071E0C90103D38CE091E053D194
S113010085E091E050D14AE06CE071E0C401F8D29E
S11301108CE091E048D187E091E045D160E086E051
S11301204DD1E0910001F09101014AE06CE071E0F1
S113013082819381E5D28CE091E035D182E091E037
S113014032D161E087E03AD1E0910001F091010100
S113015082819381B89E4001B99E900C1124C40100
S1130160B701BAD2CB014AE06CE071E0C9D28CE0AD
S113017091E019D185E091E016D1C401B601ACD269
S1130180CB01BE01A9D24AE06CE071E0B9D28CE0A7
S113019091E009D187E091E006D12FEF84E39CE060
S11301A0215080409040E1F700C000002FEF84E32D
S11301B09CE0215080409040E1F700C0000004D151
S11301C080910A0190910B0102970CF462CF109375
S11301D08B0000938A0010920B0110920A0159CFF0
S11301E01F920F920FB60F9211242F933F934F93A8
S11301F05F936F937F938F939F93AF93BF93EF938B
S1130200FF9355D0E0910001F09101018581813087
S113021009F4158216BCFF91EF91BF91AF919F91A4
S11302208F917F916F915F914F913F912F910F909B
S11302300FBE0F901F9018951F920F920FB60F923A
S113024011248F939F9380910A0190910B01019641
S113025090930B0180930A019F918F910F900FBE91
S11302600F901F901895E0910001F091010183E037
S11302708483EAE7F0E080818068808380818563FD
S11302808083ECE7F0E09081A0910001B09101013E
S113029014968C91892B8066808384E080937B0004
S11302A00895EAE7F0E08081806480830895809176
S11302B07A00E0910001F09101018481823059F0CB
S11302C0833089F481E085838091790090E0918383
S11302D0808382E007C015828091790090E0938347
S11302E0828383E0848380917C008C7F80937C0074
S11302F090917C00E0910001F09101018481892BAF
S113030080937C00089580FF02C05E9A01C05E98CD
S113031081FF02C05F9A01C05F9882FF02C0409AC9
S113032001C0409883FF02C0419A089541980895FE
S113033089B186FB882780F94F998260309984605F
S1130340319988600895CF93DF93569857983898D9
S11303503998599A5A9AECDF90E1899FE001112467
S11303605A985A9AE5DF5A988C2BDF91CF910895C9
S11303705898E9CFCF93C82F569A579A389A399AF2
S113038059985A9A82958F70BEDF5A985A9A8C2F30
S1130390BADF5A98EDDF87FDFDCFCF9108955898C5
S11303A0E9CF589AE7CFCF93DF93EC018991882363
S11303B011F0F7DFFBCFDF91CF91089590E4699FAF
S11303C0800D11248068EBCF81E0E9DF8FE097E2B4
S11303D00197F1F700C000000895CF93569A579AF9
S11303E0389A399A529A509A519A2FE58AEE90E0A7
S11303F0215080409040E1F700C0000058985A987E
S11304005998C3E05A9A83E07EDF5A9887EA91E6C6
S11304100197F1F700C00000C150A1F75A9A82E099
S113042072DF5A9887E893E10197F1F700C0000062
S113043088E2B5DF88E0B3DF81E0B1DF86E0AFDFDB
S11304408CE0CF91ACCF229AE0E8F0E0808180622A
S11304508083AFE6B0E08C9182608C93808183606E
S11304608083E1E8F0E080818861808388EC90E01B
S113047090938900809388008081816080830895AF
S113048085B5826085BDEEE6F0E080818160808381
S113049016BC08950CD0E6C0DED040F0D5D030F0C4
S11304A021F45F3F19F0C7C0511110C1CAC0EBD08D
S11304B098F39923C9F35523B1F3951B550BBB2727
S11304C0AA2762177307840738F09F5F5F4F220FD4
S11304D0331F441FAA1FA9F333D00E2E3AF0E0E8CD
S11304E030D091505040E695001CCAF729D0FE2F19
S11304F027D0660F771F881FBB1F261737074807AB
S1130500AB07B0E809F0BB0B802DBF01FF27935860
S11305105F4F2AF09E3F510568F08DC0D7C05F3F02
S1130520ECF3983EDCF3869577956795B795F79548
S11305309F5FC9F7880F911D9695879597F9089540
S1130540E1E0660F771F881FBB1F621773078407DC
S1130550BA0720F0621B730B840BBA0BEE1F88F7EB
S1130560E095089598D088F09F5790F0B92F992777
S1130570B751A0F0D1F0660F771F881F991F1AF0AA
S1130580BA95C9F712C0B13081F09FD0B1E0089597
S11305909CC0672F782F8827B85F39F0B93FCCF318
S11305A0869577956795B395D9F73EF490958095A0
S11305B0709561957F4F8F4F9F4F0895E89409C0C0
S11305C097FB3EF490958095709561957F4F8F4F82
S11305D09F4F9923A9F0F92F96E9BB279395F69598
S11305E0879577956795B795F111F8CFFAF4BB0F16
S11305F011F460FF1BC06F5F7F4F8F4F9F4F16C07A
S1130600882311F096E911C0772321F09EE8872F03
S1130610762F05C0662371F096E8862F70E060E0BF
S11306202AF09A95660F771F881FDAF7880F969538
S1130630879597F9089597F99F6780E870E060E0DF
S113064008959FEF80EC089500240A941616170667
S113065018060906089500240A94121613061406AF
S113066005060895092E0394000C11F4882352F012
S1130670BB0F40F4BF2B11F460FF04C06F5F7F4FCA
S11306808F4F9F4F089557FD9058440F551F59F0B1
S11306905F3F71F04795880F97FB991F61F09F3F6B
S11306A079F087950895121613061406551FF2CF94
S11306B04695F1DF08C0161617061806991FF1CFE4
S11306C086957105610508940895E894BB2766270B
S11306D07727CB0197F90895AA1BBB1B51E107C0EB
S11306E0AA1FBB1FA617B70710F0A61BB70B881FBE
S11306F0991F5A95A9F780959095BC01CD0108954D
S1130700BB274A3031F4992322F4BDE290958195B8
S11307109F4F01C0BB27FB015527AA27880F991FAC
S1130720AA1FA41710F0A41B83955051B9F7A05D1C
S1130730AA3308F0A95DA193009779F7B111B19399
S11307401192CB0100C0DC01FC01672F719177236A
S1130750E1F7329704C07C916D9370836291AE1778
S10D0760BF07C8F30895F894FFCF13
S10D076A11012020002C00560000AD
S9030000FC
