S019000070726163615F696E7A796E696572736B612E73726563EE
S113000019C033C032C031C030C02FC02EC02DC083
S11300102CC02BC02AC029C028C027C026C025C098
S1130020D3C023C022C021C020C0D9C01EC01DC05F
S11300301CC01BC011241FBECFEFD4E0DEBFCDBF58
S113004011E0A0E0B1E0EEEFF7E002C005900D9200
S1130050AA30B107D9F721E0AAE0B1E001C01D92AE
S1130060A831B207E1F702D0C8C3CACFDAD10FD2A0
S1130070E3D0FDD04FD280E01BD278948AEFB82E23
S1130080C4E6D0E094ECE92E99E0F92E09E110E001
S113009060E080E0B7D1E0910001F09101014AE015
S11300A06CE071E08081918175D38CE091E09FD107
S11300B082E091E09CD161E080E0A4D1E091000174
S11300C0F091010180819181B89EB001B99E700DBB
S11300D0112480E090E0BCD220E030E04FEF52E405
S11300E023D28AD2CB01BE0141D39B016C014AE0E9
S11300F06CE071E0C9014ED38CE091E078D185E0E9
S113010091E075D14AE06CE071E0C60143D38CE024
S113011091E06DD187E091E06AD160E086E072D130
S1130120E0910001F09101014AE06CE071E082810C
S1130130938130D38CE091E05AD182E091E057D1A1
S113014061E087E05FD1E0910001F09101018281DB
S11301509381B89E6001B99ED00C1124C601B701E9
S113016005D3CB014AE06CE071E014D38CE091E05C
S11301703ED185E091E03BD1C601B801F7D2CB0175
S1130180BE01F4D24AE06CE071E004D38CE091E06B
S11301902ED187E091E02BD12FEF84E39CE0215016
S11301A080409040E1F700C000002FEF84E39CE022
S11301B0215080409040E1F700C0000029D121E2A5
S11301C02A95F1F7000064CF1F920F920FB60F9299
S11301D0112416BC0F900FBE0F901F9018951F92FC
S11301E00F920FB60F9211242F933F934F935F9367
S11301F06F937F938F939F93AF93BF93EF93FF93EB
S11302003CD0E0910001F09101018581813011F42D
S1130210158299D02CD0FF91EF91BF91AF919F910E
S11302208F917F916F915F914F913F912F910F909B
S11302300FBE0F901F901895E0910001F0910101FD
S113024082E08483EAE7F0E08081806880838081B3
S11302508E618083ECE7F0E09081A0910001B09181
S1130260010114968C91892B806680830895EAE7B6
S1130270F0E08081806480830895E0910001F09132
S113028001018481823051F0833089F41582809198
S1130290790090E09383828382E008C081E08583C3
S11302A08091790090E09183808383E084838091BE
S11302B07C008C7F80937C0090917C00E091000115
S11302C0F09101018481892B80937C000895E09151
S11302D00001F09101012281338180819181821793
S11302E09307D0F0809188009091890001969093B3
S11302F08900809388002091880030918900809142
S11303000B0190E08217930720F490938900809367
S1130310880010920A01089580910A01811109C090
S1130320809188009091890001979093890080932F
S113033088008091880090918900892B19F481E0CC
S113034080930A01089589E180930B01C0CF80FF57
S113035002C05E9A01C05E9881FF02C05F9A01C02C
S11303605F9882FF02C0409A01C0409883FF02C098
S1130370419A08954198089589B186FB882780F9A8
S11303804F99826030998460319988600895CF9341
S1130390DF935698579838983998599A5A9AECDFB7
S11303A090E1899FE00111245A985A9AE5DF5A98FE
S11303B08C2BDF91CF9108955898E9CFCF93C82F14
S11303C0569A579A389A399A59985A9A82958F70A8
S11303D0BEDF5A985A9A8C2FBADF5A98EDDF87FD00
S11303E0FDCFCF9108955898E9CF589AE7CFCF938E
S11303F0DF93EC018991882311F0F7DFFBCFDF91C4
S1130400CF91089590E4699F800D11248068EBCF0B
S113041081E0E9DF8FE097E20197F1F700C0000087
S11304200895CF93569A579A389A399A529A509A6D
S1130430519A2FE58AEE90E0215080409040E1F7F8
S113044000C0000058985A985998C3E05A9A83E01B
S11304507EDF5A9887EA91E60197F1F700C0000021
S1130460C150A1F75A9A82E072DF5A9887E893E163
S11304700197F1F700C0000088E2B5DF88E0B3DF40
S113048081E0B1DF86E0AFDF8CE0CF91ACCF219A81
S1130490299AE0E8F0E0808180688083E1E8F0E078
S11304A08081816080831092890010928800089571
S11304B0813069F018F08230E1F008958091800075
S11304C08D7F8093800080918000816008C080913E
S11304D080008E7F80938000809180008260809372
S11304E080008091810088608093810084E190E0A5
S11304F00CC0809180008360809380008091810093
S11305008860809381008AE090E0909389008093D2
S11305108800089585B5826085BDEEE6F0E08081AF
S11305208160808316BC08950CD0E6C0DED040F014
S1130530D5D030F021F45F3F19F0C7C0511110C17C
S1130540CAC0EBD098F39923C9F35523B1F3951B93
S1130550550BBB27AA2762177307840738F09F5FE0
S11305605F4F220F331F441FAA1FA9F333D00E2E4F
S11305703AF0E0E830D091505040E695001CCAF7BC
S113058029D0FE2F27D0660F771F881FBB1F261781
S113059037074807AB07B0E809F0BB0B802DBF0154
S11305A0FF2793585F4F2AF09E3F510568F08DC096
S11305B0D7C05F3FECF3983EDCF38695779567955B
S11305C0B795F7959F5FC9F7880F911D9695879505
S11305D097F90895E1E0660F771F881FBB1F621724
S11305E073078407BA0720F0621B730B840BBA0BE2
S11305F0EE1F88F7E095089598D088F09F5790F003
S1130600B92F9927B751A0F0D1F0660F771F881F33
S1130610991F1AF0BA95C9F712C0B13081F09FD072
S1130620B1E008959CC0672F782F8827B85F39F010
S1130630B93FCCF3869577956795B395D9F73EF492
S113064090958095709561957F4F8F4F9F4F08953A
S1130650E89409C097FB3EF4909580957095619558
S11306607F4F8F4F9F4F9923A9F0F92F96E9BB270E
S11306709395F695879577956795B795F111F8CF8A
S1130680FAF4BB0F11F460FF1BC06F5F7F4F8F4FF5
S11306909F4F16C0882311F096E911C0772321F0EB
S11306A09EE8872F762F05C0662371F096E8862F83
S11306B070E060E02AF09A95660F771F881FDAF7DA
S11306C0880F9695879597F9089597F99F6780E81D
S11306D070E060E008959FEF80EC089500240A9490
S11306E01616170618060906089500240A94121609
S11306F01306140605060895092E0394000C11F43C
S1130700882352F0BB0F40F4BF2B11F460FF04C0E8
S11307106F5F7F4F8F4F9F4F089557FD9058440F41
S1130720551F59F05F3F71F04795880F97FB991F4C
S113073061F09F3F79F08795089512161306140609
S1130740551FF2CF4695F1DF08C016161706180696
S1130750991FF1CF86957105610508940895E89471
S1130760BB2766277727CB0197F90895AA1BBB1BE4
S113077051E107C0AA1FBB1FA617B70710F0A61B9D
S1130780B70B881F991F5A95A9F780959095BC01BE
S1130790CD010895BB274A3031F4992322F4BDE2F8
S11307A0909581959F4F01C0BB27FB015527AA2730
S11307B0880F991FAA1FA41710F0A41B83955051EA
S11307C0B9F7A05DAA3308F0A95DA193009779F762
S11307D0B111B1931192CB0100C0DC01FC01672F70
S11307E071917723E1F7329704C07C916D93708304
S11107F06291AE17BF07C8F30895F894FFCFC7
S10D07FE11012020002C0056000019
S9030000FC
